{
  "contractName": "IpfsHashRecord",
  "abi": [
    {
      "constant": true,
      "inputs": [
        {
          "name": "",
          "type": "uint256"
        }
      ],
      "name": "records",
      "outputs": [
        {
          "name": "createdAt",
          "type": "uint256"
        },
        {
          "name": "ipfsHash",
          "type": "bytes32"
        },
        {
          "name": "eventID",
          "type": "bytes4"
        }
      ],
      "payable": false,
      "stateMutability": "view",
      "type": "function"
    },
    {
      "anonymous": false,
      "inputs": [
        {
          "indexed": true,
          "name": "eventID",
          "type": "bytes4"
        },
        {
          "indexed": true,
          "name": "createdAt",
          "type": "uint256"
        },
        {
          "indexed": false,
          "name": "ipfsHash",
          "type": "bytes32"
        }
      ],
      "name": "Recorded",
      "type": "event"
    },
    {
      "anonymous": false,
      "inputs": [
        {
          "indexed": true,
          "name": "account",
          "type": "address"
        }
      ],
      "name": "WhitelistAdminAdded",
      "type": "event"
    },
    {
      "anonymous": false,
      "inputs": [
        {
          "indexed": true,
          "name": "account",
          "type": "address"
        }
      ],
      "name": "WhitelistAdminRemoved",
      "type": "event"
    },
    {
      "constant": false,
      "inputs": [
        {
          "name": "_eventID",
          "type": "bytes4"
        },
        {
          "name": "_ipfsHash",
          "type": "bytes32"
        }
      ],
      "name": "writeHash",
      "outputs": [],
      "payable": false,
      "stateMutability": "nonpayable",
      "type": "function"
    },
    {
      "constant": false,
      "inputs": [
        {
          "name": "account",
          "type": "address"
        }
      ],
      "name": "addWhitelistAdmin",
      "outputs": [],
      "payable": false,
      "stateMutability": "nonpayable",
      "type": "function"
    },
    {
      "constant": false,
      "inputs": [],
      "name": "renounceWhitelistAdmin",
      "outputs": [],
      "payable": false,
      "stateMutability": "nonpayable",
      "type": "function"
    },
    {
      "constant": true,
      "inputs": [
        {
          "name": "account",
          "type": "address"
        }
      ],
      "name": "isWhitelistAdmin",
      "outputs": [
        {
          "name": "",
          "type": "bool"
        }
      ],
      "payable": false,
      "stateMutability": "view",
      "type": "function"
    },
    {
      "constant": false,
      "inputs": [
        {
          "name": "_eventID",
          "type": "bytes4"
        },
        {
          "name": "_ipfsHash",
          "type": "bytes32"
        }
      ],
      "name": "storeHash",
      "outputs": [],
      "payable": false,
      "stateMutability": "nonpayable",
      "type": "function"
    }
  ],
  "bytecode": "0x608060405261001c33610021640100000000026401000000009004565b610297565b61004281600061008864010000000002610a4c179091906401000000009004565b8073ffffffffffffffffffffffffffffffffffffffff167f22380c05984257a1cb900161c713dd71d39e74820f1aea43bd3f1bdd2096129960405160405180910390a250565b6100a18282610174640100000000026401000000009004565b151515610116576040517f08c379a000000000000000000000000000000000000000000000000000000000815260040180806020018281038252601f8152602001807f526f6c65733a206163636f756e7420616c72656164792068617320726f6c650081525060200191505060405180910390fd5b60018260000160008373ffffffffffffffffffffffffffffffffffffffff1673ffffffffffffffffffffffffffffffffffffffff16815260200190815260200160002060006101000a81548160ff0219169083151502179055505050565b60008073ffffffffffffffffffffffffffffffffffffffff168273ffffffffffffffffffffffffffffffffffffffff1614151515610240576040517f08c379a00000000000000000000000000000000000000000000000000000000081526004018080602001828103825260228152602001807f526f6c65733a206163636f756e7420697320746865207a65726f20616464726581526020017f737300000000000000000000000000000000000000000000000000000000000081525060400191505060405180910390fd5b8260000160008373ffffffffffffffffffffffffffffffffffffffff1673ffffffffffffffffffffffffffffffffffffffff16815260200190815260200160002060009054906101000a900460ff16905092915050565b610b55806102a66000396000f3fe608060405260043610610072576000357c01000000000000000000000000000000000000000000000000000000009004806304d647361461007757806308ff5000146100db578063344610671461013f5780634c5a628c146101da5780637362d9c8146101f1578063bb5f747b14610242575b600080fd5b34801561008357600080fd5b506100d96004803603604081101561009a57600080fd5b8101908080357bffffffffffffffffffffffffffffffffffffffffffffffffffffffff19169060200190929190803590602001909291905050506102ab565b005b3480156100e757600080fd5b5061013d600480360360408110156100fe57600080fd5b8101908080357bffffffffffffffffffffffffffffffffffffffffffffffffffffffff1916906020019092919080359060200190929190505050610470565b005b34801561014b57600080fd5b506101786004803603602081101561016257600080fd5b810190808035906020019092919050505061056f565b60405180848152602001838152602001827bffffffffffffffffffffffffffffffffffffffffffffffffffffffff19167bffffffffffffffffffffffffffffffffffffffffffffffffffffffff19168152602001935050505060405180910390f35b3480156101e657600080fd5b506101ef6105d1565b005b3480156101fd57600080fd5b506102406004803603602081101561021457600080fd5b81019080803573ffffffffffffffffffffffffffffffffffffffff1690602001909291905050506105db565b005b34801561024e57600080fd5b506102916004803603602081101561026557600080fd5b81019080803573ffffffffffffffffffffffffffffffffffffffff16906020019092919050505061068a565b604051808215151515815260200191505060405180910390f35b6102b43361068a565b151561034e576040517f08c379a00000000000000000000000000000000000000000000000000000000081526004018080602001828103825260408152602001807f57686974656c69737441646d696e526f6c653a2063616c6c657220646f65732081526020017f6e6f742068617665207468652057686974656c69737441646d696e20726f6c6581525060400191505060405180910390fd5b60004290506001606060405190810160405280838152602001848152602001857bffffffffffffffffffffffffffffffffffffffffffffffffffffffff191681525090806001815401808255809150509060018203906000526020600020906003020160009091929091909150600082015181600001556020820151816001015560408201518160020160006101000a81548163ffffffff02191690837c01000000000000000000000000000000000000000000000000000000009004021790555050505080837bffffffffffffffffffffffffffffffffffffffffffffffffffffffff19167fcce1e83193e72316b7ae3946d6b86b2c9a7f16dd6bf064fa2f9321cd6bd3224c846040518082815260200191505060405180910390a3505050565b6104793361068a565b1515610513576040517f08c379a00000000000000000000000000000000000000000000000000000000081526004018080602001828103825260408152602001807f57686974656c69737441646d696e526f6c653a2063616c6c657220646f65732081526020017f6e6f742068617665207468652057686974656c69737441646d696e20726f6c6581525060400191505060405180910390fd5b42827bffffffffffffffffffffffffffffffffffffffffffffffffffffffff19167fcce1e83193e72316b7ae3946d6b86b2c9a7f16dd6bf064fa2f9321cd6bd3224c836040518082815260200191505060405180910390a35050565b60018181548110151561057e57fe5b90600052602060002090600302016000915090508060000154908060010154908060020160009054906101000a90047c010000000000000000000000000000000000000000000000000000000002905083565b6105d961069c565b565b6105e43361068a565b151561067e576040517f08c379a00000000000000000000000000000000000000000000000000000000081526004018080602001828103825260408152602001807f57686974656c69737441646d696e526f6c653a2063616c6c657220646f65732081526020017f6e6f742068617665207468652057686974656c69737441646d696e20726f6c6581525060400191505060405180910390fd5b610687816106a7565b50565b600061069582610756565b9050919050565b6106a533610773565b565b6106b03361068a565b151561074a576040517f08c379a00000000000000000000000000000000000000000000000000000000081526004018080602001828103825260408152602001807f57686974656c69737441646d696e526f6c653a2063616c6c657220646f65732081526020017f6e6f742068617665207468652057686974656c69737441646d696e20726f6c6581525060400191505060405180910390fd5b610753816107cd565b50565b600061076c82600061082790919063ffffffff16565b9050919050565b61078781600061094a90919063ffffffff16565b8073ffffffffffffffffffffffffffffffffffffffff167f0a8eb35e5ca14b3d6f28e4abf2f128dbab231a58b56e89beb5d636115001e16560405160405180910390a250565b6107e1816000610a4c90919063ffffffff16565b8073ffffffffffffffffffffffffffffffffffffffff167f22380c05984257a1cb900161c713dd71d39e74820f1aea43bd3f1bdd2096129960405160405180910390a250565b60008073ffffffffffffffffffffffffffffffffffffffff168273ffffffffffffffffffffffffffffffffffffffff16141515156108f3576040517f08c379a00000000000000000000000000000000000000000000000000000000081526004018080602001828103825260228152602001807f526f6c65733a206163636f756e7420697320746865207a65726f20616464726581526020017f737300000000000000000000000000000000000000000000000000000000000081525060400191505060405180910390fd5b8260000160008373ffffffffffffffffffffffffffffffffffffffff1673ffffffffffffffffffffffffffffffffffffffff16815260200190815260200160002060009054906101000a900460ff16905092915050565b6109548282610827565b15156109ee576040517f08c379a00000000000000000000000000000000000000000000000000000000081526004018080602001828103825260218152602001807f526f6c65733a206163636f756e7420646f6573206e6f74206861766520726f6c81526020017f650000000000000000000000000000000000000000000000000000000000000081525060400191505060405180910390fd5b60008260000160008373ffffffffffffffffffffffffffffffffffffffff1673ffffffffffffffffffffffffffffffffffffffff16815260200190815260200160002060006101000a81548160ff0219169083151502179055505050565b610a568282610827565b151515610acb576040517f08c379a000000000000000000000000000000000000000000000000000000000815260040180806020018281038252601f8152602001807f526f6c65733a206163636f756e7420616c72656164792068617320726f6c650081525060200191505060405180910390fd5b60018260000160008373ffffffffffffffffffffffffffffffffffffffff1673ffffffffffffffffffffffffffffffffffffffff16815260200190815260200160002060006101000a81548160ff021916908315150217905550505056fea165627a7a723058204483c4c6fb8312404176fa69e192fc5531c0ecb134593859c86b6fec464b45120029",
  "source": "pragma solidity 0.5.1;\n\nimport 'openzeppelin-solidity/contracts/access/roles/WhitelistAdminRole.sol';\n\n/**\n * @title IpfsHashRecord\n * @dev Record IPFS hash to Ethereum contract by emitting log.\n */\ncontract IpfsHashRecord is WhitelistAdminRole {\n\n    // eventID is the first 4 bytes of the Keccak hash of events\n    // auction_bidding: 0x636fe49e\n    // auction_receipt: 0x4997644b\n    // bancor_trading: 0x285a30e1\n    event Recorded (bytes4 indexed eventID, uint256 indexed createdAt, bytes32 ipfsHash);\n\n    /**\n     * @dev Write ipfsHash as log\n     */\n    function writeHash(bytes4 _eventID, bytes32 _ipfsHash) public onlyWhitelistAdmin {\n        emit Recorded(_eventID, uint256(now), _ipfsHash);\n    }\n    \n    /**\n     * @dev Add admin\n     */\n    function addWhitelistAdmin(address account) public onlyWhitelistAdmin {\n        super.addWhitelistAdmin(account);\n    }\n    \n    /**\n     * @dev Renounce admin\n     */\n    function renounceWhitelistAdmin() public {\n        super.renounceWhitelistAdmin();\n    }\n    \n    /**\n     * @dev Check whether address is admin or not\n     */\n    function isWhitelistAdmin(address account) public view returns (bool) {\n        return super.isWhitelistAdmin(account);\n    }\n\n    /* Following code is not use as plan, but use if necesary */\n    \n    // Packing for gas efficiency\n    // Note: Don't use as default, use if necessary\n    struct IpfsHas {\n        uint256 createdAt;\n        bytes32 ipfsHash;\n        bytes4 eventID;\n    }\n\n    // Note: Don't use as default, use if necessary\n    IpfsHas[] public records;\n\n    /**\n     * @dev Store ipfsHash to array\n     * Note: Don't use as default, use if necessary\n     */\n    function storeHash(bytes4 _eventID, bytes32 _ipfsHash) public onlyWhitelistAdmin {\n        uint256 createdAt = uint256(now);\n\n        records.push(IpfsHas({\n            createdAt: createdAt,\n            ipfsHash: _ipfsHash,\n            eventID: _eventID\n        }));\n\n        emit Recorded(_eventID, createdAt, _ipfsHash);\n    }\n}\n",
  "sourcePath": "/usr/src/ipfs-contracts/contracts/IpfsHashRecord.sol",
  "compiler": {
    "name": "solc",
    "version": "0.5.1+commit.c8a2cb62.Emscripten.clang"
  },
  "schemaVersion": "3.0.11",
  "updatedAt": "2019-08-22T03:13:45.688Z",
  "devdoc": {
    "details": "Record IPFS hash to Ethereum contract by emitting log.",
    "methods": {
      "addWhitelistAdmin(address)": {
        "details": "Add admin"
      },
      "isWhitelistAdmin(address)": {
        "details": "Check whether address is admin or not"
      },
      "renounceWhitelistAdmin()": {
        "details": "Renounce admin"
      },
      "storeHash(bytes4,bytes32)": {
        "details": "Store ipfsHash to array Note: Don't use as default, use if necessary"
      },
      "writeHash(bytes4,bytes32)": {
        "details": "Write ipfsHash as log"
      }
    },
    "title": "IpfsHashRecord"
  },
  "userdoc": {
    "methods": {}
  }
}