{
  "contractName": "IpfsHashRecord",
  "abi": [
    {
      "anonymous": false,
      "inputs": [
        {
          "indexed": true,
          "name": "eventSig",
          "type": "bytes4"
        },
        {
          "indexed": true,
          "name": "createdAt",
          "type": "uint256"
        },
        {
          "indexed": false,
          "name": "ipfsHash",
          "type": "bytes32"
        }
      ],
      "name": "Recorded",
      "type": "event"
    },
    {
      "anonymous": false,
      "inputs": [
        {
          "indexed": true,
          "name": "account",
          "type": "address"
        }
      ],
      "name": "WhitelistAdminAdded",
      "type": "event"
    },
    {
      "anonymous": false,
      "inputs": [
        {
          "indexed": true,
          "name": "account",
          "type": "address"
        }
      ],
      "name": "WhitelistAdminRemoved",
      "type": "event"
    },
    {
      "constant": false,
      "inputs": [
        {
          "name": "_eventSig",
          "type": "bytes4"
        },
        {
          "name": "_ipfsHash",
          "type": "bytes32"
        }
      ],
      "name": "writeHash",
      "outputs": [],
      "payable": false,
      "stateMutability": "nonpayable",
      "type": "function"
    },
    {
      "constant": false,
      "inputs": [
        {
          "name": "account",
          "type": "address"
        }
      ],
      "name": "addWhitelistAdmin",
      "outputs": [],
      "payable": false,
      "stateMutability": "nonpayable",
      "type": "function"
    },
    {
      "constant": false,
      "inputs": [],
      "name": "renounceWhitelistAdmin",
      "outputs": [],
      "payable": false,
      "stateMutability": "nonpayable",
      "type": "function"
    },
    {
      "constant": true,
      "inputs": [
        {
          "name": "account",
          "type": "address"
        }
      ],
      "name": "isWhitelistAdmin",
      "outputs": [
        {
          "name": "",
          "type": "bool"
        }
      ],
      "payable": false,
      "stateMutability": "view",
      "type": "function"
    }
  ],
  "bytecode": "0x608060405261003261001e610037640100000000026401000000009004565b61003f640100000000026401000000009004565b6102b5565b600033905090565b6100608160006100a664010000000002610734179091906401000000009004565b8073ffffffffffffffffffffffffffffffffffffffff167f22380c05984257a1cb900161c713dd71d39e74820f1aea43bd3f1bdd2096129960405160405180910390a250565b6100bf8282610192640100000000026401000000009004565b151515610134576040517f08c379a000000000000000000000000000000000000000000000000000000000815260040180806020018281038252601f8152602001807f526f6c65733a206163636f756e7420616c72656164792068617320726f6c650081525060200191505060405180910390fd5b60018260000160008373ffffffffffffffffffffffffffffffffffffffff1673ffffffffffffffffffffffffffffffffffffffff16815260200190815260200160002060006101000a81548160ff0219169083151502179055505050565b60008073ffffffffffffffffffffffffffffffffffffffff168273ffffffffffffffffffffffffffffffffffffffff161415151561025e576040517f08c379a00000000000000000000000000000000000000000000000000000000081526004018080602001828103825260228152602001807f526f6c65733a206163636f756e7420697320746865207a65726f20616464726581526020017f737300000000000000000000000000000000000000000000000000000000000081525060400191505060405180910390fd5b8260000160008373ffffffffffffffffffffffffffffffffffffffff1673ffffffffffffffffffffffffffffffffffffffff16815260200190815260200160002060009054906101000a900460ff16905092915050565b61083d806102c46000396000f3fe60806040526004361061005c576000357c01000000000000000000000000000000000000000000000000000000009004806308ff5000146100615780634c5a628c146100c55780637362d9c8146100dc578063bb5f747b1461012d575b600080fd5b34801561006d57600080fd5b506100c36004803603604081101561008457600080fd5b8101908080357bffffffffffffffffffffffffffffffffffffffffffffffffffffffff1916906020019092919080359060200190929190505050610196565b005b3480156100d157600080fd5b506100da61029c565b005b3480156100e857600080fd5b5061012b600480360360208110156100ff57600080fd5b81019080803573ffffffffffffffffffffffffffffffffffffffff1690602001909291905050506102a6565b005b34801561013957600080fd5b5061017c6004803603602081101561015057600080fd5b81019080803573ffffffffffffffffffffffffffffffffffffffff16906020019092919050505061035c565b604051808215151515815260200191505060405180910390f35b6101a66101a161036e565b61035c565b1515610240576040517f08c379a00000000000000000000000000000000000000000000000000000000081526004018080602001828103825260408152602001807f57686974656c69737441646d696e526f6c653a2063616c6c657220646f65732081526020017f6e6f742068617665207468652057686974656c69737441646d696e20726f6c6581525060400191505060405180910390fd5b42827bffffffffffffffffffffffffffffffffffffffffffffffffffffffff19167fcce1e83193e72316b7ae3946d6b86b2c9a7f16dd6bf064fa2f9321cd6bd3224c836040518082815260200191505060405180910390a35050565b6102a4610376565b565b6102b66102b161036e565b61035c565b1515610350576040517f08c379a00000000000000000000000000000000000000000000000000000000081526004018080602001828103825260408152602001807f57686974656c69737441646d696e526f6c653a2063616c6c657220646f65732081526020017f6e6f742068617665207468652057686974656c69737441646d696e20726f6c6581525060400191505060405180910390fd5b61035981610388565b50565b60006103678261043e565b9050919050565b600033905090565b61038661038161036e565b61045b565b565b61039861039361036e565b61035c565b1515610432576040517f08c379a00000000000000000000000000000000000000000000000000000000081526004018080602001828103825260408152602001807f57686974656c69737441646d696e526f6c653a2063616c6c657220646f65732081526020017f6e6f742068617665207468652057686974656c69737441646d696e20726f6c6581525060400191505060405180910390fd5b61043b816104b5565b50565b600061045482600061050f90919063ffffffff16565b9050919050565b61046f81600061063290919063ffffffff16565b8073ffffffffffffffffffffffffffffffffffffffff167f0a8eb35e5ca14b3d6f28e4abf2f128dbab231a58b56e89beb5d636115001e16560405160405180910390a250565b6104c981600061073490919063ffffffff16565b8073ffffffffffffffffffffffffffffffffffffffff167f22380c05984257a1cb900161c713dd71d39e74820f1aea43bd3f1bdd2096129960405160405180910390a250565b60008073ffffffffffffffffffffffffffffffffffffffff168273ffffffffffffffffffffffffffffffffffffffff16141515156105db576040517f08c379a00000000000000000000000000000000000000000000000000000000081526004018080602001828103825260228152602001807f526f6c65733a206163636f756e7420697320746865207a65726f20616464726581526020017f737300000000000000000000000000000000000000000000000000000000000081525060400191505060405180910390fd5b8260000160008373ffffffffffffffffffffffffffffffffffffffff1673ffffffffffffffffffffffffffffffffffffffff16815260200190815260200160002060009054906101000a900460ff16905092915050565b61063c828261050f565b15156106d6576040517f08c379a00000000000000000000000000000000000000000000000000000000081526004018080602001828103825260218152602001807f526f6c65733a206163636f756e7420646f6573206e6f74206861766520726f6c81526020017f650000000000000000000000000000000000000000000000000000000000000081525060400191505060405180910390fd5b60008260000160008373ffffffffffffffffffffffffffffffffffffffff1673ffffffffffffffffffffffffffffffffffffffff16815260200190815260200160002060006101000a81548160ff0219169083151502179055505050565b61073e828261050f565b1515156107b3576040517f08c379a000000000000000000000000000000000000000000000000000000000815260040180806020018281038252601f8152602001807f526f6c65733a206163636f756e7420616c72656164792068617320726f6c650081525060200191505060405180910390fd5b60018260000160008373ffffffffffffffffffffffffffffffffffffffff1673ffffffffffffffffffffffffffffffffffffffff16815260200190815260200160002060006101000a81548160ff021916908315150217905550505056fea165627a7a723058207f9d83038e942a1cffd75d26ba6bf51d504ac9040c86165c14daaab9a902a64b0029",
  "source": "pragma solidity 0.5.1;\n\nimport 'openzeppelin-solidity/contracts/access/roles/WhitelistAdminRole.sol';\n\n/**\n * @title IpfsHashRecord\n * @dev Record IPFS hash to Ethereum contract by emitting log.\n */\ncontract IpfsHashRecord is WhitelistAdminRole {\n\n  // eventSig is the first 4 bytes of the Keccak256 hash of event name\n  // auction_bidding: 0x636fe49e\n  // auction_receipt: 0x4997644b\n  // bancor_trading: 0x285a30e1\n  event Recorded (bytes4 indexed eventSig, uint256 indexed createdAt, bytes32 ipfsHash);\n\n  /**\n   * @dev Write ipfsHash as log\n   */\n  function writeHash(bytes4 _eventSig, bytes32 _ipfsHash) public onlyWhitelistAdmin {\n    emit Recorded(_eventSig, uint256(now), _ipfsHash);\n  }\n\n  /**\n   * @dev Add admin\n   */\n  function addWhitelistAdmin(address account) public onlyWhitelistAdmin {\n    super.addWhitelistAdmin(account);\n  }\n\n  /**\n   * @dev Renounce admin\n   */\n  function renounceWhitelistAdmin() public {\n    super.renounceWhitelistAdmin();\n  }\n\n  /**\n   * @dev Check whether address is admin or not\n   */\n  function isWhitelistAdmin(address account) public view returns (bool) {\n    return super.isWhitelistAdmin(account);\n  }\n}\n",
  "sourcePath": "/Users/john/projects/ipfs-contracts/contracts/IpfsHashRecord.sol",
  "compiler": {
    "name": "solc",
    "version": "0.5.1+commit.c8a2cb62.Emscripten.clang"
  },
  "schemaVersion": "3.4.4",
  "updatedAt": "2022-02-07T07:43:55.637Z",
  "networkType": "ethereum",
  "devdoc": {
    "details": "Record IPFS hash to Ethereum contract by emitting log.",
    "methods": {
      "addWhitelistAdmin(address)": {
        "details": "Add admin"
      },
      "isWhitelistAdmin(address)": {
        "details": "Check whether address is admin or not"
      },
      "renounceWhitelistAdmin()": {
        "details": "Renounce admin"
      },
      "writeHash(bytes4,bytes32)": {
        "details": "Write ipfsHash as log"
      }
    },
    "title": "IpfsHashRecord"
  },
  "userdoc": {
    "methods": {}
  }
}